{
  "_format": "hh-sol-artifact-1",
  "contractName": "WavePortal",
  "sourceName": "contracts/WavePortal.sol",
  "abi": [
    {
      "inputs": [],
      "stateMutability": "nonpayable",
      "type": "constructor"
    },
    {
      "inputs": [],
      "name": "getTotalWaves",
      "outputs": [
        {
          "internalType": "uint256",
          "name": "",
          "type": "uint256"
        }
      ],
      "stateMutability": "view",
      "type": "function"
    },
    {
      "inputs": [
        {
          "internalType": "address",
          "name": "_address",
          "type": "address"
        }
      ],
      "name": "getWavesByWallet",
      "outputs": [
        {
          "internalType": "uint256",
          "name": "",
          "type": "uint256"
        }
      ],
      "stateMutability": "view",
      "type": "function"
    },
    {
      "inputs": [
        {
          "internalType": "address",
          "name": "",
          "type": "address"
        }
      ],
      "name": "walletWaves",
      "outputs": [
        {
          "internalType": "uint256",
          "name": "",
          "type": "uint256"
        }
      ],
      "stateMutability": "view",
      "type": "function"
    },
    {
      "inputs": [],
      "name": "wave",
      "outputs": [],
      "stateMutability": "nonpayable",
      "type": "function"
    }
  ],
  "bytecode": "0x60806040526000805534801561001457600080fd5b5061004060405180606001604052806025815260200161094b6025913961004560201b6102f41760201c565b6101bf565b6100e181604051602401610059919061019d565b6040516020818303038152906040527f41304fac000000000000000000000000000000000000000000000000000000007bffffffffffffffffffffffffffffffffffffffffffffffffffffffff19166020820180517bffffffffffffffffffffffffffffffffffffffffffffffffffffffff83818316178352505050506100e460201b60201c565b50565b60008151905060006a636f6e736f6c652e6c6f679050602083016000808483855afa5050505050565b600081519050919050565b600082825260208201905092915050565b60005b8381101561014757808201518184015260208101905061012c565b60008484015250505050565b6000601f19601f8301169050919050565b600061016f8261010d565b6101798185610118565b9350610189818560208601610129565b61019281610153565b840191505092915050565b600060208201905081810360008301526101b78184610164565b905092915050565b61077d806101ce6000396000f3fe608060405234801561001057600080fd5b506004361061004c5760003560e01c806344dd622b146100515780636fe15b44146100815780639a2cdc081461008b578063fead260e146100a9575b600080fd5b61006b60048036038101906100669190610554565b6100d9565b604051610078919061059a565b60405180910390f35b6100896100f1565b005b6100936101e1565b6040516100a0919061059a565b60405180910390f35b6100c360048036038101906100be9190610554565b61022c565b6040516100d0919061059a565b60405180910390f35b60016020528060005260406000206000915090505481565b600160008082825461010391906105e4565b9250508190555060018060003373ffffffffffffffffffffffffffffffffffffffff1673ffffffffffffffffffffffffffffffffffffffff168152602001908152602001600020600082825461015991906105e4565b925050819055506101df6040518060400160405280601681526020017f257320686173207761766564212025642074696d65730000000000000000000081525033600160003373ffffffffffffffffffffffffffffffffffffffff1673ffffffffffffffffffffffffffffffffffffffff1681526020019081526020016000205461038d565b565b60006102246040518060400160405280601781526020017f5765206861766520256420746f74616c2077617665732100000000000000000081525060005461042c565b600054905090565b60006102ad6040518060400160405280601681526020017f25732068617320256420746f74616c207761766573210000000000000000000081525083600160008673ffffffffffffffffffffffffffffffffffffffff1673ffffffffffffffffffffffffffffffffffffffff1681526020019081526020016000205461038d565b600160008373ffffffffffffffffffffffffffffffffffffffff1673ffffffffffffffffffffffffffffffffffffffff168152602001908152602001600020549050919050565b61038a8160405160240161030891906106a8565b6040516020818303038152906040527f41304fac000000000000000000000000000000000000000000000000000000007bffffffffffffffffffffffffffffffffffffffffffffffffffffffff19166020820180517bffffffffffffffffffffffffffffffffffffffffffffffffffffffff83818316178352505050506104c8565b50565b6104278383836040516024016103a5939291906106d9565b6040516020818303038152906040527f0d26b925000000000000000000000000000000000000000000000000000000007bffffffffffffffffffffffffffffffffffffffffffffffffffffffff19166020820180517bffffffffffffffffffffffffffffffffffffffffffffffffffffffff83818316178352505050506104c8565b505050565b6104c48282604051602401610442929190610717565b6040516020818303038152906040527fb60e72cc000000000000000000000000000000000000000000000000000000007bffffffffffffffffffffffffffffffffffffffffffffffffffffffff19166020820180517bffffffffffffffffffffffffffffffffffffffffffffffffffffffff83818316178352505050506104c8565b5050565b60008151905060006a636f6e736f6c652e6c6f679050602083016000808483855afa5050505050565b600080fd5b600073ffffffffffffffffffffffffffffffffffffffff82169050919050565b6000610521826104f6565b9050919050565b61053181610516565b811461053c57600080fd5b50565b60008135905061054e81610528565b92915050565b60006020828403121561056a576105696104f1565b5b60006105788482850161053f565b91505092915050565b6000819050919050565b61059481610581565b82525050565b60006020820190506105af600083018461058b565b92915050565b7f4e487b7100000000000000000000000000000000000000000000000000000000600052601160045260246000fd5b60006105ef82610581565b91506105fa83610581565b9250828201905080821115610612576106116105b5565b5b92915050565b600081519050919050565b600082825260208201905092915050565b60005b83811015610652578082015181840152602081019050610637565b60008484015250505050565b6000601f19601f8301169050919050565b600061067a82610618565b6106848185610623565b9350610694818560208601610634565b61069d8161065e565b840191505092915050565b600060208201905081810360008301526106c2818461066f565b905092915050565b6106d381610516565b82525050565b600060608201905081810360008301526106f3818661066f565b905061070260208301856106ca565b61070f604083018461058b565b949350505050565b60006040820190508181036000830152610731818561066f565b9050610740602083018461058b565b939250505056fea26469706673582212200fc1f0f0d0481fe4e3cf59c12072e1c10e27c3f0fc493bab349096ff7ba11e1364736f6c63430008110033596f20796f2c204920616d206120636f6e747261637420616e64204920616d20736d617274",
  "linkReferences": {},
  "deployedLinkReferences": {}
}